{
  "abi": [
    {
      "inputs": [
        {
          "internalType": "address",
          "name": "",
          "type": "address"
        }
      ],
      "name": "addressToLastCheckInData",
      "outputs": [
        {
          "components": [
            {
              "internalType": "int32",
              "name": "latitude",
              "type": "int32"
            },
            {
              "internalType": "int32",
              "name": "longitude",
              "type": "int32"
            },
            {
              "internalType": "uint256",
              "name": "timestamp",
              "type": "uint256"
            },
            {
              "internalType": "address",
              "name": "user",
              "type": "address"
            }
          ],
          "internalType": "struct NearFrens.Position",
          "name": "_position",
          "type": "tuple"
        },
        {
          "internalType": "uint256",
          "name": "_zone",
          "type": "uint256"
        }
      ],
      "stateMutability": "view",
      "type": "function"
    },
    {
      "inputs": [
        {
          "internalType": "address",
          "name": "",
          "type": "address"
        },
        {
          "internalType": "uint256",
          "name": "",
          "type": "uint256"
        }
      ],
      "name": "addressToPosition",
      "outputs": [
        {
          "internalType": "int32",
          "name": "latitude",
          "type": "int32"
        },
        {
          "internalType": "int32",
          "name": "longitude",
          "type": "int32"
        },
        {
          "internalType": "uint256",
          "name": "timestamp",
          "type": "uint256"
        },
        {
          "internalType": "address",
          "name": "user",
          "type": "address"
        }
      ],
      "stateMutability": "view",
      "type": "function"
    },
    {
      "inputs": [
        {
          "internalType": "int32",
          "name": "_latitude",
          "type": "int32"
        },
        {
          "internalType": "int32",
          "name": "_longitude",
          "type": "int32"
        },
        {
          "internalType": "uint256",
          "name": "_zoneID",
          "type": "uint256"
        },
        {
          "internalType": "address[]",
          "name": "_collections",
          "type": "address[]"
        },
        {
          "internalType": "uint256[]",
          "name": "_tokenIDs",
          "type": "uint256[]"
        }
      ],
      "name": "checkIn",
      "outputs": [],
      "stateMutability": "nonpayable",
      "type": "function"
    },
    {
      "inputs": [],
      "name": "checkOut",
      "outputs": [],
      "stateMutability": "nonpayable",
      "type": "function"
    },
    {
      "inputs": [
        {
          "internalType": "address",
          "name": "",
          "type": "address"
        },
        {
          "internalType": "uint256",
          "name": "",
          "type": "uint256"
        },
        {
          "internalType": "uint256",
          "name": "",
          "type": "uint256"
        }
      ],
      "name": "collectionToZoneToPosition",
      "outputs": [
        {
          "internalType": "int32",
          "name": "latitude",
          "type": "int32"
        },
        {
          "internalType": "int32",
          "name": "longitude",
          "type": "int32"
        },
        {
          "internalType": "uint256",
          "name": "timestamp",
          "type": "uint256"
        },
        {
          "internalType": "address",
          "name": "user",
          "type": "address"
        }
      ],
      "stateMutability": "view",
      "type": "function"
    },
    {
      "inputs": [
        {
          "internalType": "address[]",
          "name": "collections",
          "type": "address[]"
        },
        {
          "internalType": "uint256",
          "name": "zone",
          "type": "uint256"
        }
      ],
      "name": "getPositionsforCollections",
      "outputs": [
        {
          "components": [
            {
              "internalType": "int32",
              "name": "latitude",
              "type": "int32"
            },
            {
              "internalType": "int32",
              "name": "longitude",
              "type": "int32"
            },
            {
              "internalType": "uint256",
              "name": "timestamp",
              "type": "uint256"
            },
            {
              "internalType": "address",
              "name": "user",
              "type": "address"
            }
          ],
          "internalType": "struct NearFrens.Position[]",
          "name": "_data1",
          "type": "tuple[]"
        },
        {
          "components": [
            {
              "internalType": "int32",
              "name": "latitude",
              "type": "int32"
            },
            {
              "internalType": "int32",
              "name": "longitude",
              "type": "int32"
            },
            {
              "internalType": "uint256",
              "name": "timestamp",
              "type": "uint256"
            },
            {
              "internalType": "address",
              "name": "user",
              "type": "address"
            }
          ],
          "internalType": "struct NearFrens.Position[]",
          "name": "_data2",
          "type": "tuple[]"
        },
        {
          "components": [
            {
              "internalType": "int32",
              "name": "latitude",
              "type": "int32"
            },
            {
              "internalType": "int32",
              "name": "longitude",
              "type": "int32"
            },
            {
              "internalType": "uint256",
              "name": "timestamp",
              "type": "uint256"
            },
            {
              "internalType": "address",
              "name": "user",
              "type": "address"
            }
          ],
          "internalType": "struct NearFrens.Position[]",
          "name": "_data3",
          "type": "tuple[]"
        }
      ],
      "stateMutability": "view",
      "type": "function"
    },
    {
      "inputs": [],
      "name": "returnPositionData",
      "outputs": [
        {
          "internalType": "int32",
          "name": "",
          "type": "int32"
        },
        {
          "internalType": "int32",
          "name": "",
          "type": "int32"
        },
        {
          "internalType": "uint256",
          "name": "",
          "type": "uint256"
        },
        {
          "internalType": "address",
          "name": "",
          "type": "address"
        }
      ],
      "stateMutability": "view",
      "type": "function"
    }
  ],
  "bytecode": {
    "object": "0x608060405234801561001057600080fd5b5061128c806100206000396000f3fe608060405234801561001057600080fd5b506004361061007d5760003560e01c80633356243e1161005b5780633356243e14610101578063bacca0ae146101af578063cba5751c146101b7578063d5cef5b7146101bf57600080fd5b806303cd95c81461008257806315bcd51c1461009757806318bd59ad146100df575b600080fd5b610095610090366004610f79565b6101d2565b005b6100aa6100a536600461105e565b610556565b60408051600395860b81529390940b6020840152928201526001600160a01b0390911660608201526080015b60405180910390f35b6100f26100ed366004611091565b6105bb565b6040516100d69392919061114a565b61016761010f36600461118d565b6000602081815291815260409081902081516080810183528154600381810b8352600160201b909104900b9381019390935260018101549183019190915260028101546001600160a01b031660608301526004015482565b604080518351600390810b825260208086015190910b9082015283820151918101919091526060928301516001600160a01b031692810192909252608082015260a0016100d6565b6100aa6108c8565b610095610966565b6100aa6101cd3660046111af565b610caa565b60048251106102285760405162461bcd60e51b815260206004820152601e60248201527f436865636b20696e206d617820666f72203320636f6c6c656374696f6e73000060448201526064015b60405180910390fd5b3360009081526002602052604090205460ff161561024557600080fd5b336000818152600160208181526040832080548084018255908452908320600390910201805463ffffffff898116600160201b0267ffffffffffffffff19909216908b161717815542918101919091556002810180546001600160a01b0319169093179092555b835181101561045257612710600360008684815181106102ce576102ce6111d9565b60200260200101516001600160a01b03166001600160a01b031681526020019081526020016000206000878152602001908152602001600020805490501061037e5760405162461bcd60e51b815260206004820152603a60248201527f746f6f206d75636820757365727320636865636b656420696e20666f7220746860448201527f697320636f6c6c656374696f6e20696e2074686973207a6f6e65000000000000606482015260840161021f565b60036000858381518110610394576103946111d9565b6020908102919091018101516001600160a01b03908116835282820193909352604091820160009081208982528252918220805460018082018355918452919092208554600390920201805463ffffffff19811663ffffffff9384169081178355875467ffffffffffffffff1990921617600160201b9182900490931602919091178155848201549181019190915560028085015491018054919092166001600160a01b03199091161790558061044a81611205565b9150506102ac565b506040805160e0810182528254600381810b6060808501918252600160201b93849004830b608086015260018088015460a08701526002808901546001600160a01b0390811660c089015293875260208088018c8152888a018e90523360009081528083528a90208951805182548286015163ffffffff92831667ffffffffffffffff19909216919091179116909a0299909917815599880151938a0193909355959092015191870180546001600160a01b0319169290931691909117909155518051939485949093610529938501920190610d02565b50604091820151600490910155336000908152600260205220805460ff1916600117905550505050505050565b6003602052826000526040600020602052816000526040600020818154811061057e57600080fd5b600091825260209091206003918202018054600182015460029092015481840b9650600160201b90910490920b935091506001600160a01b031684565b606080606060048551106106055760405162461bcd60e51b81526020600482015260116024820152706d6178203320636f6c6c656374696f6e7360781b604482015260640161021f565b6000600360008760008151811061061e5761061e6111d9565b60200260200101516001600160a01b03166001600160a01b031681526020019081526020016000206000868152602001908152602001600020805480602002602001604051908101604052809291908181526020016000905b828210156106df576000848152602090819020604080516080810182526003808702909301805480850b8352600160201b900490930b81850152600180840154928201929092526002909201546001600160a01b031660608301529083529092019101610677565b5050505090506060806001885111156107d1576003600089600181518110610709576107096111d9565b60200260200101516001600160a01b03166001600160a01b031681526020019081526020016000206000888152602001908152602001600020805480602002602001604051908101604052809291908181526020016000905b828210156107ca576000848152602090819020604080516080810182526003808702909301805480850b8352600160201b900490930b81850152600180840154928201929092526002909201546001600160a01b031660608301529083529092019101610762565b5050505091505b6002885111156108ba5760036000896002815181106107f2576107f26111d9565b60200260200101516001600160a01b03166001600160a01b031681526020019081526020016000206000888152602001908152602001600020805480602002602001604051908101604052809291908181526020016000905b828210156108b3576000848152602090819020604080516080810182526003808702909301805480850b8352600160201b900490930b81850152600180840154928201929092526002909201546001600160a01b03166060830152908352909201910161084b565b5050505090505b919450925090509250925092565b33600090815260016020819052604082208054839283928392918391906108ef908461121e565b815481106108ff576108ff6111d9565b6000918252602091829020604080516080810182526003938402909201805480850b808552600160201b90910490940b9483018590526001810154918301829052600201546001600160a01b03166060909201829052929991985091965090945092505050565b3360009081526002602052604090205460ff166109b65760405162461bcd60e51b815260206004820152600e60248201526d27379030b1ba34bb32903ab9b2b960911b604482015260640161021f565b3360009081526020818152604080832060030180548251818502810185019093528083529192909190830182828015610a1857602002820191906000526020600020905b81546001600160a01b031681526001909101906020018083116109fa575b505033600090815260208190526040812060040154949550925050505b82518160ff161015610c8e57600060036000858460ff1681518110610a5c57610a5c6111d9565b60200260200101516001600160a01b03166001600160a01b03168152602001908152602001600020600084815260200190815260200160002090506000805b612710811015610b0357336001600160a01b0316838281548110610ac157610ac16111d9565b60009182526020909120600260039092020101546001600160a01b031614610b035781610aed81611205565b9250508080610afb90611205565b915050610a9b565b5081548290610b149060019061121e565b81548110610b2457610b246111d9565b9060005260206000209060030201828281548110610b4457610b446111d9565b600091825260209091208254600390920201805463ffffffff19811663ffffffff9384169081178355845467ffffffffffffffff1990921617600160201b9182900490931602919091178155600180830154818301556002928301549290910180546001600160a01b039093166001600160a01b03199093169290921790915582548391610bd19161121e565b81548110610be157610be16111d9565b600091825260208220600391820201805467ffffffffffffffff191681556001810183905560020180546001600160a01b03191690558651849290889060ff8816908110610c3157610c316111d9565b60200260200101516001600160a01b03166001600160a01b031681526020019081526020016000206000868152602001908152602001600020908054610c78929190610d67565b5050508080610c8690611237565b915050610a35565b5050336000908152600260205260409020805460ff1916905550565b60016020528160005260406000208181548110610cc657600080fd5b600091825260209091206003918202018054600182015460029092015481840b9550600160201b90910490920b9250906001600160a01b031684565b828054828255906000526020600020908101928215610d57579160200282015b82811115610d5757825182546001600160a01b0319166001600160a01b03909116178255602090920191600190910190610d22565b50610d63929150610e20565b5090565b828054828255906000526020600020906003028101928215610e145760005260206000209160030282015b82811115610e14578254825463ffffffff19811663ffffffff9283169081178555855467ffffffffffffffff1990921617600160201b91829004909216021782556001808401549083015560028084015490830180546001600160a01b039092166001600160a01b031990921691909117905560039283019290910190610d92565b50610d63929150610e35565b5b80821115610d635760008155600101610e21565b5b80821115610d6357805467ffffffffffffffff19168155600060018201556002810180546001600160a01b0319169055600301610e36565b8035600381900b8114610e8057600080fd5b919050565b634e487b7160e01b600052604160045260246000fd5b604051601f8201601f1916810167ffffffffffffffff81118282101715610ec457610ec4610e85565b604052919050565b600067ffffffffffffffff821115610ee657610ee6610e85565b5060051b60200190565b80356001600160a01b0381168114610e8057600080fd5b600082601f830112610f1857600080fd5b81356020610f2d610f2883610ecc565b610e9b565b82815260059290921b84018101918181019086841115610f4c57600080fd5b8286015b84811015610f6e57610f6181610ef0565b8352918301918301610f50565b509695505050505050565b600080600080600060a08688031215610f9157600080fd5b610f9a86610e6e565b94506020610fa9818801610e6e565b945060408701359350606087013567ffffffffffffffff80821115610fcd57600080fd5b610fd98a838b01610f07565b94506080890135915080821115610fef57600080fd5b508701601f8101891361100157600080fd5b803561100f610f2882610ecc565b81815260059190911b8201830190838101908b83111561102e57600080fd5b928401925b8284101561104c57833582529284019290840190611033565b80955050505050509295509295909350565b60008060006060848603121561107357600080fd5b61107c84610ef0565b95602085013595506040909401359392505050565b600080604083850312156110a457600080fd5b823567ffffffffffffffff8111156110bb57600080fd5b6110c785828601610f07565b95602094909401359450505050565b600081518084526020808501945080840160005b8381101561113f5761112c8783518051600390810b835260208083015190910b90830152604080820151908301526060908101516001600160a01b0316910152565b60809690960195908201906001016110ea565b509495945050505050565b60608152600061115d60608301866110d6565b828103602084015261116f81866110d6565b9050828103604084015261118381856110d6565b9695505050505050565b60006020828403121561119f57600080fd5b6111a882610ef0565b9392505050565b600080604083850312156111c257600080fd5b6111cb83610ef0565b946020939093013593505050565b634e487b7160e01b600052603260045260246000fd5b634e487b7160e01b600052601160045260246000fd5b600060018201611217576112176111ef565b5060010190565b81810381811115611231576112316111ef565b92915050565b600060ff821660ff810361124d5761124d6111ef565b6001019291505056fea26469706673582212202e56dacb4453c3c83e6587fd8b1f4eca28d156b81bd03b35214d0052124289e764736f6c63430008100033",
    "linkReferences": {}
  },
  "methodIdentifiers": {
    "addressToLastCheckInData(address)": "3356243e",
    "addressToPosition(address,uint256)": "d5cef5b7",
    "checkIn(int32,int32,uint256,address[],uint256[])": "03cd95c8",
    "checkOut()": "cba5751c",
    "collectionToZoneToPosition(address,uint256,uint256)": "15bcd51c",
    "getPositionsforCollections(address[],uint256)": "18bd59ad",
    "returnPositionData()": "bacca0ae"
  },
  "id": 0
}