{
  "abi": [
    {
      "inputs": [],
      "name": "EPNS_COMM_ADDRESS",
      "outputs": [
        {
          "internalType": "address",
          "name": "",
          "type": "address"
        }
      ],
      "stateMutability": "view",
      "type": "function"
    },
    {
      "inputs": [
        {
          "internalType": "address",
          "name": "",
          "type": "address"
        },
        {
          "internalType": "uint256",
          "name": "",
          "type": "uint256"
        }
      ],
      "name": "addressToPosition",
      "outputs": [
        {
          "internalType": "int32",
          "name": "latitude",
          "type": "int32"
        },
        {
          "internalType": "int32",
          "name": "longitude",
          "type": "int32"
        },
        {
          "internalType": "uint128",
          "name": "zone",
          "type": "uint128"
        },
        {
          "internalType": "uint256",
          "name": "timestamp",
          "type": "uint256"
        },
        {
          "internalType": "address",
          "name": "user",
          "type": "address"
        },
        {
          "internalType": "string",
          "name": "status",
          "type": "string"
        }
      ],
      "stateMutability": "view",
      "type": "function"
    },
    {
      "inputs": [
        {
          "internalType": "int32",
          "name": "_latitude",
          "type": "int32"
        },
        {
          "internalType": "int32",
          "name": "_longitude",
          "type": "int32"
        },
        {
          "internalType": "uint128",
          "name": "_zoneID",
          "type": "uint128"
        },
        {
          "internalType": "address[]",
          "name": "_collections",
          "type": "address[]"
        },
        {
          "internalType": "uint256[]",
          "name": "_tokenIDs",
          "type": "uint256[]"
        },
        {
          "internalType": "string",
          "name": "_status",
          "type": "string"
        }
      ],
      "name": "checkIn",
      "outputs": [],
      "stateMutability": "nonpayable",
      "type": "function"
    },
    {
      "inputs": [
        {
          "internalType": "address",
          "name": "",
          "type": "address"
        },
        {
          "internalType": "uint256",
          "name": "",
          "type": "uint256"
        },
        {
          "internalType": "uint256",
          "name": "",
          "type": "uint256"
        }
      ],
      "name": "collectionToZoneToPosition",
      "outputs": [
        {
          "internalType": "int32",
          "name": "latitude",
          "type": "int32"
        },
        {
          "internalType": "int32",
          "name": "longitude",
          "type": "int32"
        },
        {
          "internalType": "uint128",
          "name": "zone",
          "type": "uint128"
        },
        {
          "internalType": "uint256",
          "name": "timestamp",
          "type": "uint256"
        },
        {
          "internalType": "address",
          "name": "user",
          "type": "address"
        },
        {
          "internalType": "string",
          "name": "status",
          "type": "string"
        }
      ],
      "stateMutability": "view",
      "type": "function"
    },
    {
      "inputs": [
        {
          "internalType": "address",
          "name": "user",
          "type": "address"
        }
      ],
      "name": "getListOfUserPositions",
      "outputs": [
        {
          "components": [
            {
              "internalType": "int32",
              "name": "latitude",
              "type": "int32"
            },
            {
              "internalType": "int32",
              "name": "longitude",
              "type": "int32"
            },
            {
              "internalType": "uint128",
              "name": "zone",
              "type": "uint128"
            },
            {
              "internalType": "uint256",
              "name": "timestamp",
              "type": "uint256"
            },
            {
              "internalType": "address",
              "name": "user",
              "type": "address"
            },
            {
              "internalType": "string",
              "name": "status",
              "type": "string"
            },
            {
              "internalType": "address[]",
              "name": "collections",
              "type": "address[]"
            }
          ],
          "internalType": "struct NearFrens.Position[]",
          "name": "positions",
          "type": "tuple[]"
        }
      ],
      "stateMutability": "view",
      "type": "function"
    },
    {
      "inputs": [
        {
          "internalType": "address[]",
          "name": "collections",
          "type": "address[]"
        },
        {
          "internalType": "uint256",
          "name": "zone",
          "type": "uint256"
        }
      ],
      "name": "getPositionsforCollections",
      "outputs": [
        {
          "components": [
            {
              "internalType": "int32",
              "name": "latitude",
              "type": "int32"
            },
            {
              "internalType": "int32",
              "name": "longitude",
              "type": "int32"
            },
            {
              "internalType": "uint128",
              "name": "zone",
              "type": "uint128"
            },
            {
              "internalType": "uint256",
              "name": "timestamp",
              "type": "uint256"
            },
            {
              "internalType": "address",
              "name": "user",
              "type": "address"
            },
            {
              "internalType": "string",
              "name": "status",
              "type": "string"
            },
            {
              "internalType": "address[]",
              "name": "collections",
              "type": "address[]"
            }
          ],
          "internalType": "struct NearFrens.Position[]",
          "name": "_data1",
          "type": "tuple[]"
        },
        {
          "components": [
            {
              "internalType": "int32",
              "name": "latitude",
              "type": "int32"
            },
            {
              "internalType": "int32",
              "name": "longitude",
              "type": "int32"
            },
            {
              "internalType": "uint128",
              "name": "zone",
              "type": "uint128"
            },
            {
              "internalType": "uint256",
              "name": "timestamp",
              "type": "uint256"
            },
            {
              "internalType": "address",
              "name": "user",
              "type": "address"
            },
            {
              "internalType": "string",
              "name": "status",
              "type": "string"
            },
            {
              "internalType": "address[]",
              "name": "collections",
              "type": "address[]"
            }
          ],
          "internalType": "struct NearFrens.Position[]",
          "name": "_data2",
          "type": "tuple[]"
        },
        {
          "components": [
            {
              "internalType": "int32",
              "name": "latitude",
              "type": "int32"
            },
            {
              "internalType": "int32",
              "name": "longitude",
              "type": "int32"
            },
            {
              "internalType": "uint128",
              "name": "zone",
              "type": "uint128"
            },
            {
              "internalType": "uint256",
              "name": "timestamp",
              "type": "uint256"
            },
            {
              "internalType": "address",
              "name": "user",
              "type": "address"
            },
            {
              "internalType": "string",
              "name": "status",
              "type": "string"
            },
            {
              "internalType": "address[]",
              "name": "collections",
              "type": "address[]"
            }
          ],
          "internalType": "struct NearFrens.Position[]",
          "name": "_data3",
          "type": "tuple[]"
        }
      ],
      "stateMutability": "view",
      "type": "function"
    },
    {
      "inputs": [],
      "name": "returnPositionData",
      "outputs": [
        {
          "internalType": "int32",
          "name": "",
          "type": "int32"
        },
        {
          "internalType": "int32",
          "name": "",
          "type": "int32"
        },
        {
          "internalType": "uint256",
          "name": "",
          "type": "uint256"
        },
        {
          "internalType": "address",
          "name": "",
          "type": "address"
        }
      ],
      "stateMutability": "view",
      "type": "function"
    }
  ],
  "bytecode": {
    "object": "0x6080604052600080546001600160a01b03191673b3971bcef2d791bc4027bbfedfb47319a4aaaaaa17905534801561003657600080fd5b506122fb806100466000396000f3fe608060405234801561001057600080fd5b506004361061007d5760003560e01c806372d650b01161005b57806372d650b0146100fd578063bacca0ae14610112578063bd32876b1461014a578063d5cef5b71461016a57600080fd5b806315bcd51c1461008257806318bd59ad146100b057806348a3b4a4146100d2575b600080fd5b610095610090366004611997565b61017d565b6040516100a796959493929190611a1a565b60405180910390f35b6100c36100be366004611b4b565b610288565b6040516100a793929190611c9f565b6000546100e5906001600160a01b031681565b6040516001600160a01b0390911681526020016100a7565b61011061010b366004611dbf565b6108d3565b005b61011a610d16565b60408051600395860b81529390940b6020840152928201526001600160a01b0390911660608201526080016100a7565b61015d610158366004611e86565b610ed6565b6040516100a79190611ea8565b610095610178366004611ebb565b611094565b600360205282600052604060002060205281600052604060002081815481106101a557600080fd5b600091825260209091206005909102018054600182015460028301546003808501805485830b9950600160201b860490920b9750600160401b9094046001600160801b0316955091936001600160a01b0390911692909161020590611ee5565b80601f016020809104026020016040519081016040528092919081815260200182805461023190611ee5565b801561027e5780601f106102535761010080835404028352916020019161027e565b820191906000526020600020905b81548152906001019060200180831161026157829003601f168201915b5050505050905086565b606080606060048551106102d75760405162461bcd60e51b81526020600482015260116024820152706d6178203320636f6c6c656374696f6e7360781b60448201526064015b60405180910390fd5b600060036000876000815181106102f0576102f0611f1f565b60200260200101516001600160a01b03166001600160a01b031681526020019081526020016000206000868152602001908152602001600020805480602002602001604051908101604052809291908181526020016000905b828210156104c45760008481526020908190206040805160e081018252600586029092018054600381810b8552600160201b8204810b95850195909552600160401b90046001600160801b0316918301919091526001810154606083015260028101546001600160a01b03166080830152918201805491929160a0840191906103d190611ee5565b80601f01602080910402602001604051908101604052809291908181526020018280546103fd90611ee5565b801561044a5780601f1061041f5761010080835404028352916020019161044a565b820191906000526020600020905b81548152906001019060200180831161042d57829003601f168201915b50505050508152602001600482018054806020026020016040519081016040528092919081815260200182805480156104ac57602002820191906000526020600020905b81546001600160a01b0316815260019091019060200180831161048e575b50505050508152505081526020019060010190610349565b5050505090506060806001885111156106c95760036000896001815181106104ee576104ee611f1f565b60200260200101516001600160a01b03166001600160a01b031681526020019081526020016000206000888152602001908152602001600020805480602002602001604051908101604052809291908181526020016000905b828210156106c25760008481526020908190206040805160e081018252600586029092018054600381810b8552600160201b8204810b95850195909552600160401b90046001600160801b0316918301919091526001810154606083015260028101546001600160a01b03166080830152918201805491929160a0840191906105cf90611ee5565b80601f01602080910402602001604051908101604052809291908181526020018280546105fb90611ee5565b80156106485780601f1061061d57610100808354040283529160200191610648565b820191906000526020600020905b81548152906001019060200180831161062b57829003601f168201915b50505050508152602001600482018054806020026020016040519081016040528092919081815260200182805480156106aa57602002820191906000526020600020905b81546001600160a01b0316815260019091019060200180831161068c575b50505050508152505081526020019060010190610547565b5050505091505b6002885111156108c55760036000896002815181106106ea576106ea611f1f565b60200260200101516001600160a01b03166001600160a01b031681526020019081526020016000206000888152602001908152602001600020805480602002602001604051908101604052809291908181526020016000905b828210156108be5760008481526020908190206040805160e081018252600586029092018054600381810b8552600160201b8204810b95850195909552600160401b90046001600160801b0316918301919091526001810154606083015260028101546001600160a01b03166080830152918201805491929160a0840191906107cb90611ee5565b80601f01602080910402602001604051908101604052809291908181526020018280546107f790611ee5565b80156108445780601f1061081957610100808354040283529160200191610844565b820191906000526020600020905b81548152906001019060200180831161082757829003601f168201915b50505050508152602001600482018054806020026020016040519081016040528092919081815260200182805480156108a657602002820191906000526020600020905b81546001600160a01b03168152600190910190602001808311610888575b50505050508152505081526020019060010190610743565b5050505090505b919450925090509250925092565b60048351106109245760405162461bcd60e51b815260206004820152601e60248201527f436865636b20696e206d617820666f72203320636f6c6c656374696f6e73000060448201526064016102ce565b608081511061096c5760405162461bcd60e51b81526020600482015260146024820152733a37b7903637b733903232b9b1b934b83a34b7b760611b60448201526064016102ce565b3360009081526002602052604090205460ff1615156001036109905761099061110f565b33600081815260016020818152604083208054808401825590845292206005909202909101805463ffffffff898116600160201b0267ffffffffffffffff19909216908b161717815542918101919091556002810180546001600160a01b03191690921790915560038101610a058382611f84565b508351610a1b9060048301906020870190611703565b508054600160401b600160c01b031916600160401b6001600160801b0387160217815560005b8451811015610c4f5761271060036000878481518110610a6357610a63611f1f565b60200260200101516001600160a01b03166001600160a01b031681526020019081526020016000206000886001600160801b031681526020019081526020016000208054905010610b1c5760405162461bcd60e51b815260206004820152603a60248201527f746f6f206d75636820757365727320636865636b656420696e20666f7220746860448201527f697320636f6c6c656374696f6e20696e2074686973207a6f6e6500000000000060648201526084016102ce565b60036000868381518110610b3257610b32611f1f565b6020908102919091018101516001600160a01b03908116835282820193909352604091820160009081206001600160801b038b81168352908352928120805460018082018355918352929091208654600590930201805463ffffffff19811663ffffffff9485169081178355885467ffffffffffffffff1990921617600160201b9182900490941602929092178083558654600160401b600160c01b0319909116600160401b918290049094160292909217815584820154918101919091556002808501549082018054919093166001600160a01b0319909116179091558290600380820190610c2490840182612044565b5060048281018054610c399284019190611768565b5050508080610c4790612135565b915050610a41565b50336000818152600260205260408120805460ff19166001179055546001600160a01b03169063ba3d69d790735a29280d4668622ae19b8bd0bace271f11ac89da908190610c9c90611518565b86604051602001610cae92919061214e565b6040516020818303038152906040526040518463ffffffff1660e01b8152600401610cdb93929190612210565b600060405180830381600087803b158015610cf557600080fd5b505af1158015610d09573d6000803e3d6000fd5b5050505050505050505050565b3360009081526001602081905260408220805483928392839291839190610d3d9084612245565b81548110610d4d57610d4d611f1f565b60009182526020918290206040805160e08101825260059093029091018054600381810b8552600160201b8204810b958501959095526001600160801b03600160401b90910416918301919091526001810154606083015260028101546001600160a01b03166080830152918201805491929160a084019190610dcf90611ee5565b80601f0160208091040260200160405190810160405280929190818152602001828054610dfb90611ee5565b8015610e485780601f10610e1d57610100808354040283529160200191610e48565b820191906000526020600020905b815481529060010190602001808311610e2b57829003601f168201915b5050505050815260200160048201805480602002602001604051908101604052809291908181526020018280548015610eaa57602002820191906000526020600020905b81546001600160a01b03168152600190910190602001808311610e8c575b505050919092525050506020810151815160608301516080909301519199909850919650945092505050565b6001600160a01b0381166000908152600160209081526040808320805482518185028101850190935280835260609492939192909184015b828210156110895760008481526020908190206040805160e081018252600586029092018054600381810b8552600160201b8204810b95850195909552600160401b90046001600160801b0316918301919091526001810154606083015260028101546001600160a01b03166080830152918201805491929160a084019190610f9690611ee5565b80601f0160208091040260200160405190810160405280929190818152602001828054610fc290611ee5565b801561100f5780601f10610fe45761010080835404028352916020019161100f565b820191906000526020600020905b815481529060010190602001808311610ff257829003601f168201915b505050505081526020016004820180548060200260200160405190810160405280929190818152602001828054801561107157602002820191906000526020600020905b81546001600160a01b03168152600190910190602001808311611053575b50505050508152505081526020019060010190610f0e565b505050509050919050565b600160205281600052604060002081815481106110b057600080fd5b600091825260209091206005909102018054600182015460028301546003808501805485830b9850600160201b860490920b9650600160401b9094046001600160801b03169492936001600160a01b0390921692919061020590611ee5565b3360009081526002602052604090205460ff1661115f5760405162461bcd60e51b815260206004820152600e60248201526d27379030b1ba34bb32903ab9b2b960911b60448201526064016102ce565b33600090815260016020819052604082208054929161117e9084612245565b8154811061118e5761118e611f1f565b90600052602060002090600502016004018054806020026020016040519081016040528092919081815260200182805480156111f357602002820191906000526020600020905b81546001600160a01b031681526001909101906020018083116111d5575b505033600090815260016020819052604082209596509094935061121a9250905085612245565b8154811061122a5761122a611f1f565b600091825260208220600590910201546001600160801b03600160401b9091041691505b82518160ff16101561151257600060036000858460ff168151811061127557611275611f1f565b60200260200101516001600160a01b03166001600160a01b03168152602001908152602001600020600084815260200190815260200160002090506000805b61271081101561131c57336001600160a01b03168382815481106112da576112da611f1f565b60009182526020909120600260059092020101546001600160a01b03161461131c578161130681612135565b925050808061131490612135565b9150506112b4565b508154829061132d90600190612245565b8154811061133d5761133d611f1f565b906000526020600020906005020182828154811061135d5761135d611f1f565b600091825260209091208254600590920201805463ffffffff92831663ffffffff198216811783558454600160201b9081900490941690930267ffffffffffffffff199091169092179190911780825582546001600160801b03600160401b918290041602600160401b600160c01b03199091161781556001808301549082015560028083015490820180546001600160a01b0319166001600160a01b0390921691909117905560038082019061141690840182612044565b506004828101805461142b9284019190611768565b509050508180548061143f5761143f61225e565b60008281526020812060056000199093019283020180546001600160c01b0319168155600181018290556002810180546001600160a01b03191690559061148960038301826117a8565b6114976004830160006117e5565b505090558160036000878660ff16815181106114b5576114b5611f1f565b60200260200101516001600160a01b03166001600160a01b0316815260200190815260200160002060008681526020019081526020016000209080546114fc929190611803565b505050808061150a90612274565b91505061124e565b50505050565b604080518082018252601081526f181899199a1a9b1b9c1cb0b131b232b360811b60208201528151602a80825260608281019094526001600160a01b0385169291600091602082018180368337019050509050600360fc1b8160008151811061158357611583611f1f565b60200101906001600160f81b031916908160001a905350600f60fb1b816001815181106115b2576115b2611f1f565b60200101906001600160f81b031916908160001a90535060005b60148110156116fa57826004856115e484600c612293565b602081106115f4576115f4611f1f565b1a60f81b6001600160f81b031916901c60f81c60ff168151811061161a5761161a611f1f565b01602001516001600160f81b031916826116358360026122a6565b611640906002612293565b8151811061165057611650611f1f565b60200101906001600160f81b031916908160001a905350828461167483600c612293565b6020811061168457611684611f1f565b825191901a600f1690811061169b5761169b611f1f565b01602001516001600160f81b031916826116b68360026122a6565b6116c1906003612293565b815181106116d1576116d1611f1f565b60200101906001600160f81b031916908160001a905350806116f281612135565b9150506115cc565b50949350505050565b828054828255906000526020600020908101928215611758579160200282015b8281111561175857825182546001600160a01b0319166001600160a01b03909116178255602090920191600190910190611723565b50611764929150611911565b5090565b8280548282559060005260206000209081019282156117585760005260206000209182015b8281111561175857825482559160010191906001019061178d565b5080546117b490611ee5565b6000825580601f106117c4575050565b601f0160209004906000526020600020908101906117e29190611911565b50565b50805460008255906000526020600020908101906117e29190611911565b8280548282559060005260206000209060050281019282156119055760005260206000209160050282015b82811115611905578254825463ffffffff91821663ffffffff198216811785558554600160201b9081900490931690920267ffffffffffffffff199091169091171780835583546001600160801b03600160401b918290041602600160401b600160c01b03199091161782556001808401549083015560028084015490830180546001600160a01b0319166001600160a01b0390921691909117905582826003808201906118de90840182612044565b50600482810180546118f39284019190611768565b5050509160050191906005019061182e565b50611764929150611926565b5b808211156117645760008155600101611912565b808211156117645780546001600160c01b03191681556000600182018190556002820180546001600160a01b031916905561196460038301826117a8565b6119726004830160006117e5565b50600501611926565b80356001600160a01b038116811461199257600080fd5b919050565b6000806000606084860312156119ac57600080fd5b6119b58461197b565b95602085013595506040909401359392505050565b60005b838110156119e55781810151838201526020016119cd565b50506000910152565b60008151808452611a068160208601602086016119ca565b601f01601f19169290920160200192915050565b8660030b81528560030b60208201526001600160801b038516604082015283606082015260018060a01b038316608082015260c060a08201526000611a6260c08301846119ee565b98975050505050505050565b634e487b7160e01b600052604160045260246000fd5b604051601f8201601f1916810167ffffffffffffffff81118282101715611aad57611aad611a6e565b604052919050565b600067ffffffffffffffff821115611acf57611acf611a6e565b5060051b60200190565b600082601f830112611aea57600080fd5b81356020611aff611afa83611ab5565b611a84565b82815260059290921b84018101918181019086841115611b1e57600080fd5b8286015b84811015611b4057611b338161197b565b8352918301918301611b22565b509695505050505050565b60008060408385031215611b5e57600080fd5b823567ffffffffffffffff811115611b7557600080fd5b611b8185828601611ad9565b95602094909401359450505050565b600081518084526020808501945080840160005b83811015611bc95781516001600160a01b031687529582019590820190600101611ba4565b509495945050505050565b600081518084526020808501808196508360051b8101915082860160005b85811015611c9257828403895281518051600390810b865286820151900b868601526040808201516001600160801b031690860152606080820151908601526080808201516001600160a01b03169086015260a08082015160e08288018190529190611c60838901826119ee565b9250505060c08083015192508682038188015250611c7e8183611b90565b9a87019a9550505090840190600101611bf2565b5091979650505050505050565b606081526000611cb26060830186611bd4565b8281036020840152611cc48186611bd4565b90508281036040840152611cd88185611bd4565b9695505050505050565b8035600381900b811461199257600080fd5b600082601f830112611d0557600080fd5b81356020611d15611afa83611ab5565b82815260059290921b84018101918181019086841115611d3457600080fd5b8286015b84811015611b405780358352918301918301611d38565b600082601f830112611d6057600080fd5b813567ffffffffffffffff811115611d7a57611d7a611a6e565b611d8d601f8201601f1916602001611a84565b818152846020838601011115611da257600080fd5b816020850160208301376000918101602001919091529392505050565b60008060008060008060c08789031215611dd857600080fd5b611de187611ce2565b9550611def60208801611ce2565b945060408701356001600160801b0381168114611e0b57600080fd5b9350606087013567ffffffffffffffff80821115611e2857600080fd5b611e348a838b01611ad9565b94506080890135915080821115611e4a57600080fd5b611e568a838b01611cf4565b935060a0890135915080821115611e6c57600080fd5b50611e7989828a01611d4f565b9150509295509295509295565b600060208284031215611e9857600080fd5b611ea18261197b565b9392505050565b602081526000611ea16020830184611bd4565b60008060408385031215611ece57600080fd5b611ed78361197b565b946020939093013593505050565b600181811c90821680611ef957607f821691505b602082108103611f1957634e487b7160e01b600052602260045260246000fd5b50919050565b634e487b7160e01b600052603260045260246000fd5b601f821115611f7f57600081815260208120601f850160051c81016020861015611f5c5750805b601f850160051c820191505b81811015611f7b57828155600101611f68565b5050505b505050565b815167ffffffffffffffff811115611f9e57611f9e611a6e565b611fb281611fac8454611ee5565b84611f35565b602080601f831160018114611fe75760008415611fcf5750858301515b600019600386901b1c1916600185901b178555611f7b565b600085815260208120601f198616915b8281101561201657888601518255948401946001909101908401611ff7565b50858210156120345787850151600019600388901b60f8161c191681555b5050505050600190811b01905550565b81810361204f575050565b6120598254611ee5565b67ffffffffffffffff81111561207157612071611a6e565b61207f81611fac8454611ee5565b6000601f8211600181146120b3576000831561209b5750848201545b600019600385901b1c1916600184901b178455612118565b600085815260209020601f19841690600086815260209020845b838110156120ed57828601548255600195860195909101906020016120cd565b508583101561210b5781850154600019600388901b60f8161c191681555b50505060018360011b0184555b5050505050565b634e487b7160e01b600052601160045260246000fd5b6000600182016121475761214761211f565b5060010190565b600360fc1b81526000602b60f81b806001840152603160f81b6002840152806003840152704e6577204672656e2041726f756e64202160781b6004840152806015840152507002432bc961031b432b1b5903bb432b9329607d1b601683015283516121c08160278501602088016119ca565b7501034b997102434b99039ba30ba3ab99039b0bcb99d160551b60279184019182015283516121f681603d8401602088016119ca565b601760f91b603d9290910191820152603e01949350505050565b6001600160a01b0384811682528316602082015260606040820181905260009061223c908301846119ee565b95945050505050565b818103818111156122585761225861211f565b92915050565b634e487b7160e01b600052603160045260246000fd5b600060ff821660ff810361228a5761228a61211f565b60010192915050565b808201808211156122585761225861211f565b60008160001904831182151516156122c0576122c061211f565b50029056fea2646970667358221220d4fbef9502f8be7853ec522794635ab466f07ce786a4f428bfa73c7f2da9cb6064736f6c63430008100033",
    "linkReferences": {}
  },
  "methodIdentifiers": {
    "EPNS_COMM_ADDRESS()": "48a3b4a4",
    "addressToPosition(address,uint256)": "d5cef5b7",
    "checkIn(int32,int32,uint128,address[],uint256[],string)": "72d650b0",
    "collectionToZoneToPosition(address,uint256,uint256)": "15bcd51c",
    "getListOfUserPositions(address)": "bd32876b",
    "getPositionsforCollections(address[],uint256)": "18bd59ad",
    "returnPositionData()": "bacca0ae"
  },
  "id": 0
}